:060000000A128A110E280D
:10000800FE00030EF1000408F2000A08F3000A12C9
:100018008A11342C0A128A111128F601F701F80105
:10002800F9018313203084005E300A128A111A25E0
:100038000A128A11A0308400E0300A128A111A25A7
:100048000A128A11831790308400D0300A128A115C
:100058001A250A128A111030840050300A128A11A7
:100068001A250A128A1183010A128A11092B0A1207
:100078008A1199230A128A118312031359088316C5
:100088000313E20083120313580883160313E100D5
:10009800831203135108831603136206031D5A289B
:1000A800831203135008831603136106031D5D288A
:1000B8005E285F280D29620883120313D100831676
:1000C8000313610883120313D0000130D207031809
:1000D800D30A0030D30700305302C8300319520244
:1000E80003187728782879280D29D201D301831697
:1000F8000313E401E5016508203E8400831300082A
:10010800E300E60140306402031C8B288C28932806
:100118006408503E840083170008E000CB28640878
:10012800103E840083170008E000CB280130E80067
:1001380083160313660A83120313A4280310E80D19
:10014800FF3E031DA2286808FF3A83160313E30540
:10015800E3280130E80083160313660A83120313A9
:10016800B7280310E80DFF3E031DB528680883165D
:100178000313E304E32802305B020318C428C528EC
:100188009A28AD285B1CC928CA28AD289A28600877
:1001980083120313E800E9016908003A0319D52816
:1001A800E3286808003A03199A28013A0319AD2888
:1001B800033A0319BF28013A0319C628E328013076
:1001C80083160313E4070130E60708306602031CB0
:1001D800EE28EF2886286508203E840063088313EC
:1001E80080000130E50710306502031CFC28FD285B
:1001F8007F28013083120313DB0704305B06031DDD
:10020800062907290829DB010A128A1141230A1243
:100218008A110800033083120313E0000830DF005E
:100228007630DE00DE0B1629DF0B1629E00B1629C7
:10023800000064000A128A1122250A128A111A3053
:1002480083120313E0005E30DF006D30DE00DE0B4A
:100258002B29DF0B2B29E00B2B2932290A128A11B3
:1002680028250A128A110D3083120313E000AF30DB
:10027800DF00B530DE00DE0B3F29DF0B3F29E00B46
:100288003F29462964000A128A1122250A128A1176
:10029800033083120313E0008A30DF005530DE009C
:1002A800DE0B5429DF0B5429E00B54290A128A115A
:1002B80028250A128A11083083120313E0009D30A2
:1002C800DF000530DE00DE0B6729DF0B6729E00B56
:1002D800672964000A128A1122250A128A1103303A
:1002E80083120313E0008A30DF005530DE00DE0B96
:1002F8007B29DF0B7B29E00B7B290A128A11282531
:100308000A128A11083083120313E0009D30DF00BF
:100318000530DE00DE0B8E29DF0B8E29E00B8E29DF
:1003280064000A128A1122250A128A1103308312E4
:100338000313E0008A30DF005530DE00DE0BA2290F
:10034800DF0BA229E00BA2290A128A1128250A121A
:100358008A11083083120313E0009D30DF00053056
:10036800DE00DE0BB529DF0BB529E00BB5290A1233
:100378008A1122250A128A110800831203135908C8
:10038800E4005808E30055086406031DCD29540805
:100398006306031DD029D129D229642A6408D5000F
:1003A8006308D4000A128A1110240A128A11003034
:1003B8008312031357020730031956020318E5295D
:1003C800E629ED290130D6070318D70A0030D707E8
:1003D800642AD601D701E601EA016A08403E840092
:1003E80083130008E7006A08403E840080016A0819
:1003F800303E84000008E50067086506E8006808E4
:10040800031D072A082A0B2A0830E6075C2A680811
:10041800E1006708E1056808E2006508E2056A0886
:10042800303E840067088000E9010130F500690A60
:100438001F2A0310F50DFF3E031D1D2A75086105CF
:100448000319272A282A342A660880380A128A11AA
:10045800DF240A128A110A128A1154240A128A11F4
:100468000130F50083120313690A3C2A0310F50DC5
:10047800FF3E031D3A2A750862050319442A452AD6
:10048800502A66080A128A11DF240A128A110A12EF
:100498008A1154240A128A11013083120313E607C1
:1004A8000130E90708306902031C5B2A5C2A192A13
:1004B8000130EA0710306A02031C632A642AF12912
:1004C800080083120313E50040306502031C6D2AFF
:1004D8006E2A752A6508503E8400750883178000C7
:1004E8007B2A6508903E840075088317800065089C
:1004F800E10003300310E10CFF3E031D7E2A610872
:10050800E3006308203E840083130008E2006508C6
:10051800E4000730E4057508031D932A942AA12AEC
:100528000130E100640A9A2A0310E10DFF3E031D21
:10053800982A6108FF3AE205AC2A0130E100640A12
:10054800A72A0310E10DFF3E031DA52A6108E20456
:100558006308203E8400620880000A128A11412341
:100568000A128A11080083120313141BBC2ABD2A1D
:10057800C12A941FC02AC12AC42A14139413082B11
:1005880083160313941AC92ACA2AEB2A831203135F
:100598001308831603131419D22AD32AD82A8312CC
:1005A8000313DC011416082B013083120313DC003B
:1005B800141EDF2AE02AE12A082B0A128A11F924DC
:1005C8000A128A118312031393001416082B83123C
:1005D80003135C08031DF12AF22AF92A13080A12E8
:1005E8008A11EC240A128A11082B1308141EFD2AFA
:1005F800FE2AFF2A082B0A128A1199240A128A1144
:10060800831203139300141608000A128A11AE24E9
:100618000A128A110A128A11E9230A128A110A1285
:100628008A116E240A128A110A128A116F230A1279
:100638008A110A128A1106250A128A1183120313D3
:100648008C118C100B178B170A128A110E210A12A3
:100658008A110A128A1122250A128A1164000A12C2
:100668008A11C1210A128A110A128A113B200A1220
:100678008A11322B0A128A110E2883160313860157
:1006880083120313E0011030DF006008DF045F0805
:1006980085006008203E840083130008DE005E09A0
:1006A80086000330F400F40B572B831203138516CE
:1006B8000330F400F40B5E2B013083120313E007C0
:1006C80010306002031C692B6A2B472BFF308316FE
:1006D80003138600080083160313051085100511FF
:1006E8008511051285122030831203138500FF300F
:1006F8008316031386008113FF309500F4017408F4
:10070800403E8400831380017408303E84008001D9
:100718000130F40710307402031C932B942B832BA5
:1007280083120313D601D70108000A128A11D224B2
:100738000A128A1183120313E6006608031DA52B0B
:10074800A62BA72BC02B0A128A1184240A128A11FD
:1007580083120313E700E71FB22BB32BB82B6708EC
:10076800DA007F30DA05C02B6708F5005A080A124C
:100778008A1165220A128A11080083120313E20102
:100788006208903E8400831780016208103E84004E
:1007980080010130E20740306202031CD42BD52BC4
:1007A800C42BE1016108203E8400831380010130DD
:1007B800E10710306102031CE22BE32BD62B0A124F
:1007C8008A1141230A128A110800F901F801F70178
:1007D800F6018316031307148716003083120313D8
:1007E800871A0130F5000310F50D003007180130A5
:1007F800F5073030F5077508F400740783160313FE
:1008080093009413911306308312031394009416E3
:10081800831603138C150800FF3083160313860014
:1008280083120313E0016008DF00DF165F0885000C
:100838000630F400F40B1E2C000083120313060983
:10084800DE006008403E84005E08831380040130A7
:10085800E00710306002031C322C332C172C0800E0
:10086800831203138C1C392C3A2C412C8C100A123D
:100878008A1111250A128A114B2C8C1D442C452CE7
:100888004B2C8C110A128A11B7220A128A1173088A
:100898008A0072088400710E8300FE0E7E0E090025
:1008A800831203135D0803195A2C5B2C642C0A125B
:1008B8008A1128250A128A1183120313DD016D2C6F
:1008C8000A128A1122250A128A110130831203138F
:1008D800DD00080083120313D801D901831603131E
:1008E8008C148430831203139205033092049215FA
:1008F8009B3083160313920083120313121508000A
:1009080077087606031D892C8A2C8C2CFF30982CAE
:100918007608A03E840083130008F4007608013EA0
:10092800F6001F30F6057408080079087806031DDC
:100938009E2C9F2CA12CFF30AD2C7808C03E840043
:1009480083130008F0007808013EF8001F30F8050E
:10095800700808008316031788018901831603139A
:100968008701871507168312031387010A128A1154
:10097800C0240A128A1108008B1264008312031320
:100988008101831603138115F830F400F8308105CE
:100998000730F404740881006400080076087702C0
:1009A800031CD72CD82CDB2C76087702DE2C760893
:1009B8007702203E0800F4007908C03E84007408DD
:1009C800831380007908013EF9001F30F9050800FB
:1009D800F0007708A03E8400700883138000770831
:1009E800013EF7001F30F705080078087902031C5C
:1009F800FE2CFF2C022D78087902052D7808790243
:100A0800203E080083120313D201D301DB010A122E
:100A18008A11C1230A128A110800013083120313B4
:100A2800D8070318D90A0030D907080064008001E4
:100A3800840A04060319003404061B2D83120313C9
:100A480007150130DD000800831203130711DD01CB
:020A5800080094
:04400E00EA27FF3F5F
:00000001FF
