:060000000A128A110E280D
:10000800FE00030EF1000408F2000A08F3000A12C9
:100018008A11182C0A128A111128F601F701F80121
:10002800F9018313203084005E300A128A11FE24FD
:100038000A128A11A0308400E0300A128A11FE24C4
:100048000A128A11831790308400D0300A128A115C
:10005800FE240A128A111030840050300A128A11C4
:10006800FE240A128A1183010A128A11DC2A03303B
:1000780083120313E0000830DF007630DE00DE0B69
:100088004328DF0B4328E00B4328000064000A12D2
:100098008A1106250A128A111A3083120313E00006
:1000A8005E30DF006D30DE00DE0B5828DF0B58288D
:1000B800E00B58285F280A128A110C250A128A11A7
:1000C8000D3083120313E000AF30DF00B530DE00DF
:1000D800DE0B6C28DF0B6C28E00B6C28732864009F
:1000E8000A128A1106250A128A1103308312031391
:1000F800E0008A30DF005530DE00DE0B8128DF0BA0
:100108008128E00B81280A128A110C250A128A110B
:10011800083083120313E0009D30DF000530DE0055
:10012800DE0B9428DF0B9428E00B942864000A1255
:100138008A1106250A128A11033083120313E0007C
:100148008A30DF005530DE00DE0BA828DF0BA82838
:10015800E00BA8280A128A110C250A128A11083005
:1001680083120313E0009D30DF000530DE00DE0B54
:10017800BB28DF0BBB28E00BBB2864000A128A11DE
:1001880006250A128A11033083120313E0008A300D
:10019800DF005530DE00DE0BCF28DF0BCF28E00B69
:1001A800CF280A128A110C250A128A1108308312E4
:1001B8000313E0009D30DF000530DE00DE0BE2288F
:1001C800DF0BE228E00BE2280A128A1106250A1240
:1001D8008A110800831203135908E5005808E4003F
:1001E80051086506031DFA2850086406031DFD28FA
:1001F800FE28FF2893296508D1006408D000013043
:10020800D2070318D30A0030D30700305302C8308E
:100218000319520203181129122913299329D2010B
:10022800D301E701E8016808203E84008313000831
:10023800E600E90140306702031C232924292B2901
:100248006708503E840083170008E30057296708B1
:10025800103E840083170008E30057290130E100AD
:10026800690A38290310E10DFF3E031D362961088C
:10027800FF3AE6056D290130E100690A45290310B6
:10028800E10DFF3E031D43296108E6046D29023094
:100298005B0203185029512932293F295B1C552933
:1002A80056293F2932296308E100E2016208003A31
:1002B80003195F296D296108003A03193229013AA7
:1002C80003193F29033A03194B29013A0319522903
:1002D8006D290130E7070130E90708306902031C7E
:1002E800762977291E296808203E8400660883132A
:1002F80080000130E80710306802031C8429852932
:1003080017290130DB0704305B06031D8C298D2972
:100318008E29DB010A128A114C230A128A1108005D
:10032800831203135908E4005808E30055086406CB
:10033800031DA02954086306031DA329A429A52980
:10034800372A6408D5006308D4000A128A11F423F6
:100358000A128A1100308312031357020730031957
:1003680056020318B829B929C0290130D60703183D
:10037800D70A0030D707372AD601D701E601EA01A4
:100388006A08403E840083130008E7006A08403E7C
:10039800840080016A08303E84000008E500670890
:1003A8006506E8006808031DDA29DB29DE2908301C
:1003B800E6072F2A6808E1006708E1056808E200F7
:1003C8006508E2056A08303E840067088000E90194
:1003D8000130F500690AF2290310F50DFF3E031DEF
:1003E800F029750861050319FA29FB29072A660807
:1003F80080380A128A11C3240A128A110A128A1131
:1004080038240A128A110130F50083120313690A8D
:100418000F2A0310F50DFF3E031D0D2A750862050E
:100428000319172A182A232A66080A128A11C324CC
:100438000A128A110A128A1138240A128A11013002
:1004480083120313E6070130E90708306902031C29
:100458002E2A2F2AEC290130EA0710306A02031CE1
:10046800362A372AC429080083120313E5004030CE
:100478006502031C402A412A482A6508503E840028
:100488007508831780004E2A6508903E8400750819
:10049800831780006508E10003300310E10CFF3E7C
:1004A800031D512A6108E3006308203E840083137A
:1004B8000008E2006508E4000730E4057508031D3C
:1004C800662A672A742A0130E100640A6D2A03103B
:1004D800E10DFF3E031D6B2A6108FF3AE2057F2A02
:1004E8000130E100640A7A2A0310E10DFF3E031D82
:1004F800782A6108E2046308203E840062088000CC
:100508000A128A114C230A128A1108008312031353
:10051800141B8F2A902A942A941F932A942A972A84
:1005280014139413DB2A83160313941A9C2A9D2A06
:10053800BE2A831203131308831603131419A52A5A
:10054800A62AAB2A83120313DC011416DB2A013016
:1005580083120313DC00141EB22AB32AB42ADB2A3E
:100568000A128A11DD240A128A11831203139300D6
:100578001416DB2A831203135C08031DC42AC52A38
:10058800CC2A13080A128A11D0240A128A11DB2AEB
:100598001308141ED02AD12AD22ADB2A0A128A1159
:1005A8007D240A128A11831203139300141608007B
:1005B8000A128A1192240A128A110A128A11CC2369
:1005C8000A128A110A128A1152240A128A110A126C
:1005D8008A117A230A128A110A128A11EA240A1243
:1005E8008A11831203138C118C100B178B170A12A4
:1005F8008A113B200A128A110A128A1106250A1248
:100608008A1164000A128A1119230A128A110A121D
:100618008A1194210A128A110A128A11EE200A12EA
:100628008A11052B0A128A110E280A128A11B62479
:100638000A128A1183120313E6006608031D252B8C
:10064800262B272B4B2B0A128A1168240A128A118F
:1006580083120313E700670A031D332B342B3A2B4D
:100668000A128A1111250A128A114B2BE71F3D2BFA
:100678003E2B432B6708DA007F30DA054B2B6708DF
:10068800F5005A080A128A1138220A128A1108003B
:1006980083160313860183120313E0011030DF0071
:1006A8006008DF045F0885006008203E840083132B
:1006B8000008DE005E0986000330F400F40B622BAC
:1006C8008312031385160330F400F40B692B0130F1
:1006D80083120313E00710306002031C742B752B80
:1006E800522BFF308316031386000800831603136A
:1006F8000510851005118511051285122030831209
:1007080003138500FF308316031386008113FF301F
:100718009500F4017408403E840083138001740836
:10072800303E840080010130F40710307402031C4D
:100738009E2B9F2B8E2B83120313D601D701080003
:1007480083120313E2016208903E8400831780013C
:100758006208103E840080010130E20740306202E6
:10076800031CB72BB82BA72BE1016108203E84009E
:10077800831380010130E10710306102031CC52B8F
:10078800C62BB92B0A128A114C230A128A110800A7
:100798000A128A1111250A128A11831603130714E3
:1007A8008716003083120313871A0130F5000310EF
:1007B800F50D003007180130F5073030F5077508DA
:1007C800F4007407831603139300941391130630EF
:1007D8008312031394009416831603138C150800D0
:1007E800FF3083160313860083120313E0016008A9
:1007F800DF00DF165F0885000630F400F40B022CDA
:100808000000831203130609DE006008403E8400DE
:100818005E08831380040130E00710306002031C77
:10082800162C172CFB2B0800831203138C1C1D2C71
:100838001E2C252C8C100A128A11F5240A128A11F2
:100848002F2C8C1D282C292C2F2C8C110A128A1144
:100858008A220A128A1173088A0072088400710EAB
:100868008300FE0E7E0E0900831203135D08031930
:100878003E2C3F2C482C0A128A110C250A128A1188
:1008880083120313DD01512C0A128A1106250A125C
:100898008A11013083120313DD0008008312031349
:1008A800D801D901831603138C14843083120313DF
:1008B80092050330920492159B308316031392001D
:1008C800831203131215080077087606031D6D2C92
:1008D8006E2C702CFF307C2C7608A03E840083138D
:1008E8000008F4007608013EF6001F30F60574088B
:1008F800080079087806031D822C832C852CFF308C
:10090800912C7808C03E840083130008F000780812
:10091800013EF8001F30F805700808008316031719
:100928008801890183160313870187150716831227
:10093800031387010A128A11A4240A128A110800D3
:100948008B1264008312031381018316031381152C
:10095800F830F400F83081050730F4047408810099
:100968006400080076087702031CBB2CBC2CBF2C43
:1009780076087702C22C76087702203E0800F40039
:100988007908C03E84007408831380007908013E0A
:10099800F9001F30F9050800F0007708A03E840030
:1009A8007008831380007708013EF7001F30F705B1
:1009B800080078087902031CE22CE32CE62C78085E
:1009C8007902E92C78087902203E08008312031383
:1009D800D201D301DB010A128A11A4230A128A1157
:1009E8000800013083120313D8070318D90A00300E
:1009F800D907080064008001840A0406031900343A
:100A08000406FF2C8312031307150130DD000800CC
:100A1800831203130711DD010800F901F801F7013A
:040A2800F6010800CB
:04400E00EA27FF3F5F
:00000001FF
