:060000000A128A110E280D
:10000800FE00030EF6000408F7000A08F8000A12BA
:100018008A11B02D0A128A111128F001F101F2019A
:10002800F301F40183132030840067300A128A1127
:10003800C6260A128A11A0308400F0300A128A11EA
:10004800C6260A128A11831790308400F0300A12EB
:100058008A11C6260A128A11103084005E300A12EC
:100068008A11C6260A128A1183010A128A11CB2C18
:1000780083120313650883120317E0008312031326
:10008800640883120317DF0051086006031D4E2819
:1000980050085F06031D512852285328FD28600880
:1000A800D1005F08D0000130D2070318D30A00300E
:1000B800D30700305302C8300319520203186528C9
:1000C80066286728FD28D201D301E201E30163080D
:1000D800D03E840083170008E100E401403062024A
:1000E800031C772878287F286208D03E840083176D
:1000F8000008DE00BD286208203E84008313000843
:10010800DE00BD2801300313E90083120317640AD7
:100118008312031391280310E90DFF3E031D8F2856
:100128006908FF3A83120317E105D5280130031344
:10013800E90083120317640A83120313A528031026
:10014800E90DFF3E031DA328690883120317E10484
:10015800D52802308312031755020318B428B5288E
:1001680086289A2883120317551CBB28BC289A286E
:1001780086285E0883120313E900EA016A08003A38
:100188000319C728D5286908003A03198628013AAF
:1001980003199A28033A0319AD28013A0319B62816
:1001A800D528013083120317E2070130E40708302D
:1001B8006402031CE028E12872286308D03E84000A
:1001C8006108831780000130E30710306302031CC5
:1001D800EE28EF286B280130D50704305506031D9B
:1001E800F628F728F828D5010A128A1158220A1287
:1001F8008A110800033083120313E9000830E8006D
:100208007630E700E70B0629E80B0629E90B0629F3
:10021800000064000A128A11D5260A128A111A30BF
:1002280083120313E9005E30E8006D30E700E70B46
:100238001B29E80B1B29E90B1B2922290A128A1101
:10024800DB260A128A110D3083120313E900AF303E
:10025800E800B530E700E70B2F29E80B2F29E90B59
:100268002F29362964000A128A11D5260A128A1102
:10027800033083120313E9008A30E8005530E700A1
:10028800E70B4429E80B4429E90B44290A128A118F
:10029800DB260A128A11083083120313E9009D3005
:1002A800E8000530E700E70B5729E80B5729E90B69
:1002B800572964000A128A11D5260A128A110330B6
:1002C80083120313E9008A30E8005530E700E70B92
:1002D8006B29E80B6B29E90B6B290A128A11DB26BB
:1002E8000A128A11083083120313E9009D30E800CE
:1002F8000530E700E70B7E29E80B7E29E90B7E290C
:1003080064000A128A11D5260A128A110330831250
:100318000313E9008A30E8005530E700E70B92291B
:10032800E80B9229E90B92290A128A11DB260A1294
:100338008A11083083120313E9009D30E800053064
:10034800E700E70BA529E80BA529E90BA5290A125F
:100358008A11D5260A128A11080083120313650828
:1003680083120317E200831203136408831203172E
:10037800E100831203136108831203176206031D49
:10038800CB29831203136008831203176106031D28
:10039800CE29CF29D029572A620883120313E100F6
:1003A80083120317610883120313E0000A128A11EB
:1003B800C2220A128A110030831203136302073023
:1003C800031962020318E929EA29F1290130E20731
:1003D8000318E30A0030E307572AE201E3010A128F
:1003E8008A11C2220A128A1183120317E001E60158
:1003F8006608E03E840083130008E4006608E03ED7
:10040800840080016608E03E840083170008DE004F
:1004180064085E06E3006308031D132A142A172ADA
:100428000830E0074F2A6308DF006408DF05660824
:10043800E03E840064088000E50101308312031364
:10044800E90083120317650A831203132D2A031088
:10045800E90DFF3E031D2B2A6908831203175F0568
:100468000319372A382A432A60080A128A1199265A
:100478000A128A110A128A11EA250A128A1101300F
:1004880083120317E0070130E50708306502031CF3
:100498004E2A4F2A212A0130E60710306602031C33
:1004A800562A572AFC29080083160313860183124B
:1004B8000313E801051685126818632A672A831250
:1004C800031305146A2A8312031305106808F90038
:1004D80001300310F90CFF3E031D6D2A7918752AA7
:1004E800792A8312031385147C2A83120313851037
:1004F8006808F90002300310F90CFF3E031D7F2A3B
:100508007918872A8B2A8312031305158E2A8312DA
:10051800031305116808F90003300310F90CFF3EB6
:10052800031D912A7918992A9D2A83120313851588
:10053800A02A8312031385116808D03E840083170C
:100548000008E700670986000330F900F90BAA2ABA
:100558008312031385160330F900F90BB12A013011
:1005680083120313E80710306802031CBC2ABD2A53
:100578005E2AFF308316031386000800FF308316B7
:10058800031386008312031305128516E801681801
:10059800CE2AD22A831203130514D52A83120313F1
:1005A80005106808F90001300310F90CFF3E031D1F
:1005B800D82A7918E02AE42A831203138514E72A33
:1005C8008312031385106808F90002300310F90C30
:1005D800FF3E031DEA2A7918F22AF62A831203132A
:1005E8000515F92A8312031305116808F900033069
:1005F8000310F90CFF3E031DFC2A7918042B082B65
:100608008312031385150B2B8312031385110630F0
:10061800F900F90B0D2B0000831203130609E700FC
:100628006808E03E84006708831380040130E80707
:1006380010306802031C212B222BCB2A08008312BE
:100648000313141B282B292B2D2B941F2C2B2D2BFC
:10065800302B141394137C2B83160313941A352B05
:10066800362B5B2B831203131308831603131419F9
:100678003E2B3F2B462B83120317D60183120313FD
:1006880014167C2B013083120317D6008312031330
:10069800141E4F2B502B512B7C2B0A128A118A26A1
:1006A8000A128A1183120313930014167C2B8312E7
:1006B80003175608031D612B622B6B2B8312031340
:1006C80013080A128A117B260A128A117C2B8312BC
:1006D80003131308141E712B722B732B7C2B0A1215
:1006E8008A111B260A128A11831203139300141607
:1006F8000800831203136508E8006408E70071081E
:100708006806031D892B70086706031D8C2B8D2B2B
:100718008E2BD42B6808F1006708F0000030071B07
:10072800013083120317DB000310DB0D0030831246
:100738000313871B013083120317DB070A128A1180
:100748007A240A128A11031083120313871C0314D4
:1007580000300318013083120317DD0000307302E4
:100768001E30031972020318BA2BBB2BC22B01309F
:10077800F2070318F30A0030F307D42BF201F30150
:10078800031083120313871C03140030031801306D
:1007980083120317DD040A128A118D250A128A11A1
:1007A80008000A128A116C260A128A11831203178A
:1007B800DE005E08031DE12BE22BE32B282C0A1236
:1007C8008A1104260A128A1183120317E100610AAA
:1007D800031DEF2BF02B132C0A128A11CE260A12B6
:1007E8008A11143083120317DF00E0010C2C600813
:1007F800013E84000A128A11D0250A128A110A12AF
:100808008A1199260A128A11013083120317E00708
:100818005F086002031C112C122CFB2B282CE11FF3
:10082800162C172C1C2C6108D4007F30D405282CDA
:10083800610883120313E9008312031754080A128C
:100848008A1129240A128A11080083120313EE0060
:1008580040306E02031C312C322C392C6E08D03EED
:1008680084006908831780003F2C6E08103E8400BE
:100878006908831780006E08EA0003300310EA0C49
:10088800FF3E031D422C6A08EC006C08D03E840031
:100898000008EB006E08ED000730ED056908031D40
:1008A800562C572C642C0130EA006D0A5D2C03107D
:1008B800EA0DFF3E031D5B2C6A08FF3AEB056F2C1F
:1008C8000130EA006D0A6A2C0310EA0DFF3E031D91
:1008D800682C6A08EB046C08D03E84006B08800022
:1008E8000A128A1158220A128A1108008312031761
:1008F8005B085A06031D812C822C832CCA2C0330DA
:100908005A06031D882C892C8E2C5B0303198D2C09
:100918008E2CAF2C5A03031D922C932C982C5B0819
:100928000319972C982CAF2C5A08031D9C2C9D2C2E
:10093800A32C02305B060319A22CA32CAF2C023087
:100948005A06031DA82CA92CBB2C03305B06031DDB
:10095800AE2CAF2CBB2C0A128A11EA250A128A1176
:1009680080300A128A1199260A128A11C62C0A1294
:100978008A11EA250A128A1181300A128A119926E7
:100988000A128A11831203175B08DA0008000A1298
:100998008A1148260A128A110A128A1165250A1232
:1009A8008A110A128A1132260A128A110A128A1127
:1009B80012250A128A110A128A11A6260A128A1107
:1009C8000A128A11B2260A128A11831203138C1191
:1009D8008C100B178B170A128A11FE200A128A1123
:1009E8000A128A11D5260A128A1164000A128A117B
:1009F800D5230A128A110A128A11B1210A128A1100
:100A08000A128A117D230A128A110A128A113C20BD
:100A18000A128A11F92C0A128A110E288316031356
:100A2800051085100511851105128512831203130F
:100A38008516FF308316031386008113FF30950057
:100A4800F9017908E03E8400831380017908E03ECB
:100A58008400831780010130F90710307902031CE4
:100A6800362D372D252D83120313E201E3010800EB
:100A780083120313EA016A08103E84008317800179
:100A88006A08203E8400831380010130EA07403061
:100A98006A02031C502D512D3F2DE9016908D03EF3
:100AA8008400831780010130E90710306902031CB4
:100AB8005E2D5F2D522D0A128A1158220A128A11B0
:100AC80008000A128A11CE260A128A118316031305
:100AD80007148716003083120313871A0130E700C2
:100AE8000310E70D003007180130E7073030E7073B
:100AF8006708F90079078316031393009413911379
:100B080006308312031394009416831603138C156E
:100B18000800831203175D085C06031D942D952DAC
:100B2800962DAF2D0A128A11EA250A128A1183120C
:100B380003175D08DC005D080319A32DA42DAF2D54
:100B480082300A128A1199260A128A110A128A1107
:100B5800EA250A128A110800831203138C1CB52D8A
:100B6800B62DBD2D8C100A128A11BD260A128A11C3
:100B7800C72D8C1DC02DC12DC72D8C110A128A11AD
:100B880023230A128A1178088A0077088400760ECF
:100B98008300FE0E7E0E090005308A000408840AD0
:100BA8008207003442347534743474346F346E34CC
:100BB80073342D344C346934673468347434733482
:100BC8002034763431342E34303400348312031315
:100BD80066080319F02DF12DFA2D0A128A11DB2669
:100BE8000A128A1183120313E601032E0A128A11CC
:100BF800D5260A128A11013083120313E600080071
:100C08008312031758085706031D0B2E0C2E0E2EA1
:100C1800FF301A2E5708903E840083170008F90009
:100C28005708013ED7003F30D705790808007408F7
:100C3800831203175906031D222E232E252EFF305B
:100C4800312E5908A03E840083130008F500590886
:100C5800013ED9003F30D9057508080083120313F7
:100C6800E401E501831603138C1484308312031303
:100C780092050330920492159B3083160313920059
:100C880083120313121508008316031788018901BC
:100C98008316031387018715071683120313870129
:100CA8000A128A115A260A128A1108008B12640045
:100CB800831203138101831603138115F830F90099
:100CC800F83081050730F9047908810064000800CC
:100CD8008312031757085802031C732E742E772E9D
:100CE800570858027A2E57085802403E0800F50067
:100CF800831203175808903E8400750883178000F4
:100D08005808013ED8003F30D80508008312031761
:100D180059087402031C912E922E952E59087402BC
:100D2800982E59087402403E0800F9007408A03E45
:100D380084007908831380007408013EF4003F3072
:100D4800F405080083160313071787178714F201A1
:100D5800F30183120317DA01DC0108008312031779
:100D6800D201D301D5010A128A113C250A128A112F
:100D78000800013083120313E4070318E50A003062
:100D8800E507080064008001840A0406031900349A
:100D98000406C72EF40183120317D901D801D7011D
:100DA80008008312031307150130E60008008312B8
:080DB80003130711E601080016
:04400E00EA27FF3F5F
:00000001FF
