:020000040000FA
:02000000862B4D
:040002000034003492
:08000800FA00030EFB00831255
:1000100003130A08E4000408E500831203138C1C90
:100020001B288C10F90A0319F80A83120313E6033C
:10003000031907151C281F238312031364088A0061
:0E004000650884007B0E8300FA0E7A0E09001C
:02004E00831617
:10005000031788018901831603138501FF30860089
:10006000831603138113831603139500850108304B
:10007000F500FE00FD01FE0383174D3084007E086D
:1000800084077F0880008317553084007E0884072A
:100090007F088000F50B3B280800FE30F400112299
:1000A0000830F100F001F201831745308400700838
:1000B0008407000883120313E700FD0083174D3007
:1000C0008400700884070008FF00FD0667087D05AE
:1000D000F6007F087D05F70083174D308400700817
:1000E0008407670880007608FC1B77040319A028A2
:1000F000F5017618FE2077187421F50AF618FE200F
:10010000F7187421F50A7619FE2077197421F50A7B
:10011000F619FE20F7197421F50A761AFE20771ACF
:100120007421F50AF61AFE20F71A7421F50A761BD7
:10013000FE20771B7421F50AF61BFE20F71B7421A5
:100140000830F207F00AF10B54280800FF30F400E1
:1001500011220830F100F001F201831745308400CC
:1001600070088407000883120313E700FD0083175B
:1001700055308400700884070008FF00FD066708FA
:100180007D05F6007F087D05F70083175530840054
:100190007008840767088000760877040319F82838
:1001A000F501761810217718D521F50AF6181021D7
:1001B000F718D521F50A761910217719D521F50AF6
:1001C000F6191021F719D521F50A761A1021771A98
:1001D000D521F50AF61A1021F71AD521F50A761B52
:1001E0001021771BD521F50AF61B1021F71BD5210D
:1001F0000830F207F00AF10BAD2808007508720705
:10020000FD008313A03084007D08840778088000F7
:100210008313203084007D0884077908800008005B
:1002200075087207FD00C03883120317C4008317D6
:10023000103084003108840744088000310AC4006B
:10024000203044020319C4014408B100831203138F
:100250007808E000FF007908E100FE008313A03079
:1002600084007D0884070008E200831320308400A6
:100270007D0884070008E3006308E1026208031CAC
:10028000620FE00203185329FF30E000E100630829
:10029000E1026208031C620FE0027E08E107031816
:1002A000E00A7F08E0076008FF30031DE100E10C71
:1002B000E113610883120317C40083171030840010
:1002C0003108840744088000310AC4002030440209
:1002D0000319C4014408B1001F3083120313E60060
:1002E0008312031307110800FC1F0800750872072A
:1002F000FD00803883120317C40083171030840078
:100300003108840744088000310AC40020304402C8
:100310000319C4014408B100831203137808E000F4
:10032000FF007908E100FE008313A03084007D08FF
:1003300084070008E2008313203084007D088407CE
:100340000008E3006308E1026208031C620FE00298
:100350000318B929FF30E000E1006308E1026208F8
:10036000031C620FE0027E08E1070318E00A7F0821
:10037000E0076008FF30031DE100E10CE11370307D
:10038000E105610883120317C4008317103084004D
:100390003108840744088000310AC4002030440238
:1003A0000319C4014408B100080075087207FD0074
:1003B000FC1FE9298313A03084007D088407780896
:1003C00080008313203084007D0884077908800032
:1003D00008007D08803883120317C400831710308B
:1003E00084003108840744088000310AC4002030AA
:1003F00044020319C4014408B100003083120317FA
:10040000C40083171030840031088407440880003A
:10041000310AC400203044020319C4014408B10069
:1004200008004530840083170830F100F00170089F
:10043000F300F30D73147408F305730883120313A8
:100440008500000000000000000000000000000027
:1004500000000000000006098000840AF00AF10B89
:10046000172A08000030FE08453084000830F100EB
:10047000F0017008F300F30D73147408F3057308AA
:1004800083120313850006098004840AF00AF10B25
:08049000392AFE0B342A080092
:08049800831603138701871787
:1004A0008312031387018316031300309A002A3046
:1004B000990018158316031787158316031318124E
:1004C00098168312031398170800831203130C1E47
:1004D0000800831203173008310203190800831241
:1004E0000317831710308400300884070008831234
:1004F0000313990083120317B00A20303002031946
:10050000B0010800831203138C1E080098189E2A5D
:100510001819B32A1A0883120317C400831732303C
:1005200084004308840744088000430AC400103054
:1005300044020319C4014408C30008001812181625
:1005400083120317C40083173230840043088407E2
:1005500044088000430AC400103044020319C40157
:100560004408C30008001A0883120317C400831745
:10057000323084004308840744088000430AC400E2
:10058000103044020319C4014408C3000800831258
:100590000317300831020319E52A83120317831762
:1005A0001030840030088407000883120313990078
:1005B00083120317B00A203030020319B0018312EE
:1005C000031730083102031D0800831603130C12B1
:1005D00008008312031399000000831203130C1EFA
:0405E000EF2A0800F6
:0C05E40083160313870187150716831286
:1005F0000313870183160313871607148316031347
:100600009413303083120313871A023E0718013EF9
:10061000831603139300930D831603139113831210
:100620000313063094009416831603138C1583125B
:1006300003138C110800831203138C1D080083120E
:100640000313130883160313941A442B8312031302
:10065000681483160313141D822B83120313141AB8
:10066000822B8312031368108312031730083102A0
:1006700003183D2B3008203C3107831203139300ED
:10068000831203131416822B83120313681C5B2B33
:1006900083120317C4008317323084004308840791
:1006A00044088000430AC400103044020319C40106
:1006B0004408C300822B83120313141A822B831263
:1006C000031730083102031D6D2BFF308312031313
:1006D0009300831203131416822B831203178317BC
:1006E000103084003008840700088312031393003D
:1006F00083120313141683120317B00A203030023A
:0C0700000319B001831203138C110800D0
:04070C0083018316CC
:1007100003138701FC01F22283120317B001B10118
:10072000C201C30100248312031307150E24831290
:10073000031307110E248312031307150E248312CB
:10074000031307110E248312031307150E248312BB
:10075000031307110E248312031307152720831692
:1007600003138516F801F901831203138B170B1776
:10077000831603138C148312031384309205033001
:100780009204003092041215831603139B309200DA
:10079000831203138B1283120313640081018316E7
:1007A0000313811564008112F830010505388100BA
:1007B0004D20A6206400831203137C13851A7C1736
:1007C00083120317420843020319D82B831203171D
:1007D000831732308400420884070008C400831263
:1007E0000317C20A103042020319C2014408FD0077
:1007F000FE39803C031DD82BFC137D18FC17D82B29
:100800001930FF00FF30FE00FF30FD00FD0B062C0D
:100810006400FE0B042CFF0B022C08001930FF00B3
:10082000FF30FE004030FD00FD0B142C6400FE0B79
:10083000122CFF0B102C0800831203130715023033
:0A084000FD00FD0B212C071108003C
:02400E00EA279F
:02401000FF3F70
:00000001FF
