:060000000A128A110E280D
:10000800FE00030EF1000408F2000A08F3000A12C9
:100018008A117F2B0A128A111128F601F701F801BB
:10002800F9018313203084005A300A128A113524CA
:100038000A128A11A0308400E0300A128A1135248D
:100048000A128A11831790308400D0300A128A115C
:1000580035240A128A1183010A128A11042B831289
:100068000313E901EC0103146C0D85000000000086
:100078000000000000000000000000000000000078
:10008800831203130608EA006A09EA006C08483E6E
:10009800840083130008E2006A086206E600660826
:1000A800E7006A08E7056608031D5B285C285F28E7
:1000B8000830E907F9286C08483E84006A0880007F
:1000C8006708031D682869286A285C286C08403E70
:1000D80084000008E800EB010130DE006B0A762896
:1000E8000310DE0DFF3E031D74285E086705031923
:1000F8007E287F28E9280130DE006B0A8528031056
:10010800DE0DFF3E031D83285E086805031D8D284C
:100118008E28E9286908A03E840083130008DE00C1
:10012800DF015E08DF00DE016908903E8400831766
:1001380000085E07E0000030031801305F07E100A7
:100148006108F5006008F4000A128A1132230A12C5
:100158008A11750883120313E5007408E40000305F
:100168006502FF3003196402031CBB28BC28BF28A2
:100178007F30E300C8286508DF006408DE0003104C
:10018800DF0CDE0C5E08E3006908C0380A128A1129
:1001980007240A128A118312031363080A128A11A8
:1001A80007240A128A110A128A11E1230A128A11F3
:1001B800013083120313DE006B0AE4280310DE0DFE
:1001C800FF3E031DE2285E08E8040130E90701301C
:1001D800EB0708306B02031CF228F32870286C0820
:1001E800403E84006808831380000130EC07083023
:1001F8006C02031C00290129372808008312031305
:10020800E401E7016708DA005A07850000000000EA
:1002180000000000000000000000000000000000D6
:10022800831203130609E2006708503E8400831313
:100238000008DE0062085E06E3006308031D252946
:10024800262929290830E407C1296308DF00620844
:10025800DF056308E0005E08E0056708503E84009B
:10026800620880005F0803193A293B296D29E501D6
:100278000130DA00650A42290310DA0DFF3E031D3A
:1002880040295A085F0503194A294B296529590845
:10029800DD005808DC00A0306507DA0064085A075A
:1002A800DB005B0884005D088313800090306507DD
:1002B800DA0064085A07DB005B0884005C088317CF
:1002C80080000130E50708306502031C6C296D29A0
:1002D8003C29600803197129722926296708403EBC
:1002E800840083130008E100E6010130DA00660AA1
:1002F8007F290310DA0DFF3E031D7D295A0860058A
:10030800031987298829B2290130DA00660A8E295B
:100318000310DA0DFF3E031D8C295A0861050319E5
:1003280096299729B2296608640780380A128A1123
:1003380007240A128A110A128A11E1230A128A1161
:10034800013083120313DA00660AAC290310DA0DB0
:10035800FF3E031DAA295A08FF3AE1050130E607C6
:1003680008306602031CB929BA2979296708403E72
:10037800840061088313800026290130E7070830CC
:100388006702031CC829C9290629080002308312FC
:100398000313DC004530DB00A930DA00DA0BD22980
:1003A800DB0BD229DC0BD22964000A128A113D2406
:1003B8000A128A111A3083120313DC005E30DB0044
:1003C8006D30DA00DA0BE629DB0BE629DC0BE629CF
:1003D800ED290A128A1143240A128A110D30831258
:1003E8000313DC00AF30DB00B530DA00DA0BFA2992
:1003F800DB0BFA29DC0BFA29012A64000A128A119C
:100408003D240A128A11033083120313DC008A3058
:10041800DB005530DA00DA0B0F2ADB0B0F2ADC0B76
:100428000F2A0A128A1143240A128A1108308312E9
:100438000313DC009D30DB000530DA00DA0B222ADA
:10044800DB0B222ADC0B222A64000A128A113D24C3
:100458000A128A11033083120313DC008A30DB008E
:100468005530DA00DA0B362ADB0B362ADC0B362A53
:100478000A128A1143240A128A11083083120313BC
:10048800DC009D30DB000530DA00DA0B492ADB0B93
:10049800492ADC0B492A64000A128A113D240A12EF
:1004A8008A11033083120313DC008A30DB005530D5
:1004B800DA00DA0B5D2ADB0B5D2ADC0B5D2A0A12F7
:1004C8008A1143240A128A11083083120313DC00AC
:1004D8009D30DB000530DA00DA0B702ADB0B702A5E
:1004E800DC0B702A0A128A113D240A128A110800AC
:1004F80083120313141B812A822A862A941F852AB1
:10050800862A892A14139413C82A83160313941A63
:100518008E2A8F2AB02A8312031313088316031313
:100528001419972A982A9D2AF60183120313141680
:10053800C82A0130F60083120313141EA42AA52A20
:10054800A62AC82A0A128A1114240A128A118312A6
:10055800031393001416C82A83120313130876088A
:10056800031DB72AB82ABA2A1416C82A141EBD2A87
:10057800BE2ABF2AC82A0A128A11CC230A128A1153
:10058800831203139300141608008316031305102F
:100598008510051185110512831203138501FF309B
:1005A8008316031386008113FF309500F501750843
:1005B800503E8400831380017508483E8400800102
:1005C8007508403E840080010130F5070830750247
:1005D800031CEF2AF02ADB2AF4017408A03E8400E9
:1005E800831380017408903E8400831780010130D2
:1005F800F40740307402031C022B032BF12A080075
:100608000A128A119F230A128A110A128A115A237E
:100618000A128A110A128A11B6230A128A110A12B8
:100628008A11C9220A128A11831203138C118C10A1
:100638000B178B170A128A11CA210A128A110A1279
:100648008A113D240A128A1164000A128A1121248F
:100658000A128A11282B0A128A110E2883120313F0
:100668005908DD005808DC0075085D02031D3E2BA3
:1006780074085C02031C412B422B4B2B74085C0250
:10068800F4007508031C750A5D02F500592B7508FE
:10069800DB007408DA00DA09DB095C085A07F400A1
:1006A8005D0803185D0A5B07F5000800F801F7010B
:1006B8008316031307148716003083120313871A4F
:1006C8000130F5000310F50D003007180130F5076B
:1006D8003030F5077508F400740783160313930088
:1006E80094139113063083120313940094168316FF
:1006F80003138C150800831203138C1C842B852B81
:100708008C2B8C100A128A112C240A128A11962B0F
:100718008C1D8F2B902B962B8C110A128A117C2200
:100728000A128A1173088A0072088400710E830005
:10073800FE0E7E0E09008316031788018316031325
:1007480085168316031789018316031387018715F6
:1007580007168312031387010A128A11F5230A1256
:100768008A11080083120313D801D90183160313D1
:100778008C1484308312031392050330920492156B
:100788009B3083160313920083120313121508007B
:1007980078087706031DD12BD22BD42BFF30E02B02
:1007A8007708203E840083130008F0007708013E94
:1007B800F7001F30F7057008080079080319E52BC2
:1007C800E62BED2B0A128A1143240A128A11F90129
:1007D800F42B0A128A113D240A128A110130F900F9
:1007E80008008B126400831203138101831603131C
:1007F8008115F830F400F83081050730F4047408E6
:10080800810064000800F4007808203E8400740821
:10081800831380007808013EF8001F30F8050800AF
:1008280077087802031C192C1A2C1D2C77087802DB
:10083800202C77087802203E08000A128A1102212B
:100848000A128A110A128A1133200A128A11080020
:10085800013083120313D8070318D90A0030D907C7
:10086800080064008001840A0406031900340406A1
:10087800362C8312031307150130F9000800831280
:0808880003130711F901080038
:04400E00EA27FF3F5F
:00000001FF
