:060000000A128A110E280D
:10000800FE00030EF1000408F2000A08F3000A12C9
:100018008A11772B0A128A1111280A128A11502480
:100028000A128A11ED000A128A1151240A128A1141
:10003800EE00831790308400D0300A128A113224DF
:100048000A128A118313A0308400E0300A128A1140
:1000580032240A128A11203084005A300A128A1176
:1000680032240A128A11F601F701F801F901830115
:100078000A128A11FC2A83120313E901EC01031402
:100088006C0D85000000000000000000000000006A
:100098000000000000000000831203130608EA00B5
:1000A8006A09EA003F30EA056C08483E8400831379
:1000B8000008E2006A086206E6006608E7006A08C7
:1000C800E7056608031D69286A286D280830E907CE
:1000D80002296C08483E84006A0880006708031DEE
:1000E8007628772878286A286C08403E840000081B
:1000F800E800EB010130DE006B0A84280310DE0DF6
:10010800FF3E031D82285E08670503198C288D2889
:10011800F2280130DE006B0A93280310DE0DFF3E43
:10012800031D91285E086805031D9B289C28F2285A
:100138006908A03E840083130008DE00DF015E0822
:10014800DF00DE016908903E8400831700085E071F
:10015800E0000030031801305F07E1006108F50096
:100168006008F4000A128A112A230A128A117508F3
:1001780083120313E5007408E40000306502FF30C1
:1001880003196402031CC928CA28CD287F30E3005C
:10019800D6286508DF006408DE000310DF0CDE0CDB
:1001A8005E08E3006908C0380A128A110D240A1291
:1001B8008A118312031363080A128A110D240A1282
:1001C8008A11013083120313DE006B0AED28031035
:1001D800DE0DFF3E031DEB285E08E8040130E90749
:1001E8000130EB0708306B02031CFB28FC287E2833
:1001F8006C08403E84006808831380000130EC07D7
:1002080008306C02031C09290A29432808008312B4
:100218000313E401E7016708DA005A0785000000C4
:1002280000000000000000000000000000000000C6
:100238000000831203130609E3003F30E305670853
:10024800503E840083130008DE0063085E06E20067
:100258006208031D3029312934290830E407C729E9
:100268006208DF006308DF056208E0005E08E00559
:100278006708503E8400630880005F080319452919
:1002880046297829E5010130DA00650A4D2903106D
:10029800DA0DFF3E031D4B295A085F05031955293E
:1002A800562970295908DD005808DC00A030650778
:1002B800DA0064085A07DB005B0884005D088313D2
:1002C800800090306507DA0064085A07DB005B0895
:1002D80084005C08831780000130E5070830650258
:1002E800031C772978294729600803197C297D2967
:1002F80031296708403E840083130008E100E601C5
:100308000130DA00660A8A290310DA0DFF3E031D60
:1003180088295A086005031992299329B8290130B8
:10032800DA00660A99290310DA0DFF3E031D9729A2
:100338005A0861050319A129A229B8296608640782
:1003480080380A128A110D240A128A110130831288
:100358000313DA00660AB2290310DA0DFF3E031D03
:10036800B0295A08FF3AE1050130E607083066026D
:10037800031CBF29C02984296708403E84006108FE
:100388008313800031290130E70708306702031C16
:10039800CE29CF290F29080064000A128A113A24AD
:1003A8000A128A111A3083120313DC005E30DB0054
:1003B8006D30DA00DA0BDE29DB0BDE29DC0BDE29F7
:1003C800E5290A128A1146240A128A110D3083126D
:1003D8000313DC00AF30DB00B530DA00DA0BF229AA
:1003E800DB0BF229DC0BF229F92964000A128A11C5
:1003F8003A240A128A11033083120313DC008A306C
:10040800DB005530DA00DA0B072ADB0B072ADC0B96
:10041800072A0A128A1146240A128A1108308312FE
:100428000313DC009D30DB000530DA00DA0B1A2AF2
:10043800DB0B1A2ADC0B1A2A64000A128A113A24E6
:100448000A128A11033083120313DC008A30DB009E
:100458005530DA00DA0B2E2ADB0B2E2ADC0B2E2A7B
:100468000A128A1146240A128A11083083120313C9
:10047800DC009D30DB000530DA00DA0B412ADB0BAB
:10048800412ADC0B412A64000A128A113A240A1212
:100498008A11033083120313DC008A30DB005530E5
:1004A800DA00DA0B552ADB0B552ADC0B552A0A121F
:1004B8008A1146240A128A11083083120313DC00B9
:1004C8009D30DB000530DA00DA0B682ADB0B682A7E
:1004D800DC0B682A0A128A113A240A128A110800C7
:1004E80083120313141B792A7A2A7E2A941F7D2AE1
:1004F8007E2A812A14139413C02A83160313941A8C
:10050800862A872AA82A831203131308831603133B
:1005180014198F2A902A952AF601831203131416A8
:10052800C02A0130F60083120313141E9C2A9D2A48
:100538009E2AC02A0A128A111A240A128A118312C0
:10054800031393001416C02A8312031313087608A2
:10055800031DAF2AB02AB22A1416C02A141EB52ABF
:10056800B62AB72AC02A0A128A11C4230A128A1183
:10057800831203139300141608008316031305103F
:100588008510051185110512831203138501FF30AB
:100598008316031386008113FF309500F501750853
:1005A800503E8400831380017508483E8400800112
:1005B8007508403E840080010130F5070830750257
:1005C800031CE72AE82AD32AF4017408A03E840011
:1005D800831380017408903E8400831780010130E2
:1005E800F40740307402031CFA2AFB2AE92A08009F
:1005F8000A128A1197230A128A110A128A1152239F
:100608000A128A110A128A11AE230A128A110A12D0
:100618008A11C1220A128A11831203138C118C10B9
:100628000B178B170A128A11D0210A128A110A1283
:100638008A113A240A128A1164000A128A1127249C
:100648000A128A11202B0A128A110E288312031308
:100658005908DD005808DC0075085D02031D362BBB
:1006680074085C02031C392B3A2B432B74085C0278
:10067800F4007508031C750A5D02F500512B750816
:10068800DB007408DA00DA09DB095C085A07F400B1
:100698005D0803185D0A5B07F5000800F801F7011B
:1006A8008316031307148716003083120313871A5F
:1006B8000130F5000310F50D003007180130F5077B
:1006C8003030F5077508F400740783160313930098
:1006D800941391130630831203139400941683160F
:1006E80003138C150800831203138C1C7C2B7D2BA1
:1006F800842B8C100A128A11FF230A128A118E2B5E
:100708008C1D872B882B8E2B8C110A128A11742230
:100718000A128A1173088A0072088400710E830015
:10072800FE0E7E0E09008316031788018316031335
:100738008516831603178901831603138701871506
:1007480007168312031387010A128A11ED230A126E
:100758008A11080083120313D801D90183160313E1
:100768008C1484308312031392050330920492157B
:100778009B3083160313920083120313121508008B
:1007880078087706031DC92BCA2BCC2BFF30D82B32
:100798007708203E840083130008F0007708013EA4
:1007A800F7001F30F7057008080079080319DD2BDA
:1007B800DE2BE52B0A128A114B240A128A11F90141
:1007C800EC2B0A128A1140240A128A110130F9000E
:1007D80008008B126400831203138101831603132C
:1007E8008115F830F400F83081050730F4047408F6
:1007F800810064000800013083120313D80703182E
:10080800D90A0030D9070A128A11D9230A128A1183
:100818000800F4007808203E8400740883138000E0
:100828007808013EF8001F30F805080077087802BC
:10083800031C1F2C202C232C77087802262C7708E1
:100848007802203E08000A128A110B210A128A1126
:100858000A128A113F200A128A11080064008001D6
:10086800840A0406031900340406332C8312031384
:1008780007150130F900080083120313071501302A
:10088800F9000800831203130711F9010800831205
:0C08980003130711F90108008834133421
:04400E00EA27FF3F5F
:00000001FF
