:060000000A128A110E280D
:10000800FE00030EF1000408F2000A08F3000A12C9
:100018008A11F32A0A128A11112883135F30FD000E
:100028000330FE002830FF004C3084000A128A1189
:1000380077230A128A11831790308400CC300A1271
:100048008A1123240A128A118313A0308400C03035
:100058000A128A1123240A128A11203084004C3093
:100068000A128A112324F601F701F801F901830124
:100078000A128A11A12A8312031305105330F400BF
:10008800F40B442883120313E001CB30F40060081A
:10009800F4027408840083170008DF005F1C5728E7
:1000A8004508E3005828E301DF1C5D284608E20004
:1000B8005E28E2015F1D63284708E1006428E1012A
:1000C800E21B6928051405106D28051400000000BE
:1000D800051083120313621B742805140510782871
:1000E800051400000000051083120313E21A7F288C
:1000F800051405108328051400000000051083125C
:100108000313621A8A28051405108E2805140000A6
:100118000000051083120313E21995280514051031
:1001280099280514000000000510831203136219B2
:10013800A02805140510A4280514000000000510C7
:1001480083120313E218AB2805140510AF28051411
:10015800000000000510831203136218B628051466
:100168000510BA28051400000000051083120313B7
:10017800E11BC12805140510C5280514000000005E
:10018800051083120313611BCC2805140510D02811
:10019800051400000000051083120313E11AD72884
:1001A80005140510DB280514000000000510831253
:1001B8000313611AE22805140510E6280514000047
:1001C8000000051083120313E119ED28051405102A
:1001D800F1280514000000000510831203136119AB
:1001E800F82805140510FC28051400000000051067
:1001F80083120313E11803290514051007290514B0
:100208000000000005108312031361180E2905145D
:1002180005101229051400000000051083120313AD
:10022800E31B1929051405101D29051400000000F9
:10023800051083120313631B2429051405102829AC
:10024800051400000000051083120313E31A2F2978
:100258000514051033290514000000000510831249
:100268000313631A3A29051405103E2905140000E2
:100278000000051083120313E3194529051405101E
:10028800492905140000000005108312031363199F
:100298005029051405105429051400000000051004
:1002A80083120313E3185B29051405105F2905144D
:1002B8000000000005108312031363186629051453
:1002C80005106A290514000000000510013083128A
:1002D8000313E0073C3060020318080049280A129B
:1002E8008A1104240A128A1183120313E400640891
:1002F800031908000A128A11F9230A128A110A122C
:100308008A113B230A128A1183120313E500650A36
:10031800031D9B2900300A128A110F230A128A1121
:100328000A128A113F2083120313C4010800C13046
:10033800650603199429C8306502031CAD29D0301D
:1003480065020318AD296508383E0A128A11C423CC
:10035800080040306502031CB92980306502031883
:10036800B9296508C03EC4000800083065020318B2
:10037800C4296508F40044080A128A11ED2308000C
:1003880080306502031CD229903065020318D229F7
:100398006508803E0A128A1194230800903065028D
:1003A800031CE029A03065020318E0296508703EA7
:1003B8000A128A11A4230800A0306502031C080051
:1003C800B0306502031808006508603E0A128A11F9
:1003D800B4230800831203135E08031908000330CE
:1003E8004302E830031942020318012A0130C20708
:1003F8000318C30A0030C3070800C201C3015D081F
:10040800F4000730F4054A080A128A11ED230A128B
:100418008A110A128A113F200A128A1183120313C1
:100428005D08031D222A4A080339031D2C2A0130BE
:10043800DC070130DB070130DA072C2A4A080339C8
:10044800031D2C2A0130DC020130DB020130DA0204
:100458005C080A128A1194230A128A118312031360
:100468005B080A128A11A4230A128A118312031341
:100478005A080A128A11B4230A128A110130831207
:100488000313CA073C304A06031D0800CA0101309D
:10049800CB070E304B060319CB014B084C3E8400AA
:1004A80083130008DD005D08031D5E2ADC01DB0103
:1004B800DA010800FF30DC00FF30DB00FF30DA0033
:1004C800080083120313141B6B2A941F6E2A14133B
:1004D8009413080083160313941A8C2A83120313A7
:1004E80013088316031314197E2A83120313C801F1
:1004F80014160800013083120313C800141A0800E8
:100508000A128A110F248312031393001416080089
:10051800831203134808031D962A13080A128A1126
:10052800E02308001308141A08000A128A114E233F
:10053800831203139300141608000A128A118423E5
:100548000A128A110A128A11CC220A128A110A1274
:100558008A11D3230A128A11831203138C118C1067
:100568000B178B170A128A1131240A128A110A12E0
:100578008A112B240A128A1164000A128A11732123
:100588000A128A110A128A11EE210A128A11C02A45
:10059800F901F801F701F60183160313071487160A
:1005A800003083120313871A0130F5000310F50D8C
:1005B800003007180130F5073030F5077508F400EA
:1005C8007407831603139300941391130630831250
:1005D800031394009416831603138C1508008312D2
:1005E80003138C1CFE2A8C100A128A111A240A1270
:1005F8008A11062B8C1D062B8C110A128A11652272
:100608000A128A1173088A0072088400710E830026
:10061800FE0E7E0E0900F400F5017508903E840078
:10062800831780010130F5073C307502031C112B3C
:100638007408031908000F3083120313C7000F3022
:10064800C6000F30C50008000134003402340034FD
:1006580003340034043400340534003406340034E0
:1006680007340034FF34FF34FF3401340134770891
:100678007606031D412BFF3008007608A03E840053
:1006880083130008F4007608013EF6001F30F605D3
:100698007408080079087806031D542BFF300800F9
:1006A8007808203E840083130008F0007808013E93
:1006B800F8001F30F805700808008B1264008312D8
:1006C80003138101831603138115F830F400F83001
:1006D80081050730F40474088100640008007E086E
:1006E8008A007F08820073230A128A118000840A14
:1006F80004087D0603190034FF0A0319FE0A772B44
:100708008316031788018901831603138701871548
:1007180007168312031387010A128A11612308003E
:10072800F5007508F40003300310F40DFF3E031DB7
:10073800982B0310740D0F3E83120313C700080093
:10074800F5007508F40003300310F40DFF3E031D97
:10075800A82B0310740D0F3E83120313C600080064
:10076800F5007508F40003300310F40DFF3E031D77
:10077800B82B0310740D0F3E83120313C500080035
:10078800F400F5017508903E840074088317800012
:100798000130F5073C30750203180800C62B831694
:1007A8000313850101300A128A110F230A128A11D4
:1007B8000A128A113F200800F0007708A03E840042
:1007C8007008831380007708013EF7001F30F70593
:1007D8000800F5003C307502031808007508903EC3
:1007E80084007408831780000800831203135E08CE
:1007F80003190800DE0101300A128A110F230800CC
:1008080076087702031C0B2C760877020800760816
:100818007702203E080078087902031C162C780815
:100828007902080078087902203E08000130831216
:100838000313C0070318C10A0030C1070800640089
:100848008001840A0406031900340406242C831248
:0E085800031307150130C900080064000800F2
:04400E00EA27FF3F5F
:00000001FF
