:060000000A128A110E280D
:10000800FE00030EF1000408F2000A08F3000A12C9
:100018008A11382B0A128A11112883134F30FD00D8
:100028000330FE008130FF003C3084000A128A1140
:10003800D0230A128A11831790308400D0300A1214
:100048008A1189240A128A118313A0308400DC30B3
:100058000A128A1189240A128A11203084003C303D
:100068000A128A118924F601F701F801F9018301BE
:100078000A128A11E72A8312031305105330F40079
:10008800F40B442883120313D001DB30F40050082A
:10009800F4027408840083130008CF004F1C57280B
:1000A8003508D3005828D301CF1C5D283608D20064
:1000B8005E28D2014F1D63283708D1006428D1017A
:1000C800D21B6928051405106D28051400000000CE
:1000D800051083120313521B742805140510782881
:1000E800051400000000051083120313D21A7F289C
:1000F800051405108328051400000000051083125C
:100108000313521A8A28051405108E2805140000B6
:100118000000051083120313D21995280514051041
:1001280099280514000000000510831203135219C2
:10013800A02805140510A4280514000000000510C7
:1001480083120313D218AB2805140510AF28051421
:10015800000000000510831203135218B628051476
:100168000510BA28051400000000051083120313B7
:10017800D11BC12805140510C5280514000000006E
:10018800051083120313511BCC2805140510D02821
:10019800051400000000051083120313D11AD72894
:1001A80005140510DB280514000000000510831253
:1001B8000313511AE22805140510E6280514000057
:1001C8000000051083120313D119ED28051405103A
:1001D800F1280514000000000510831203135119BB
:1001E800F82805140510FC28051400000000051067
:1001F80083120313D11803290514051007290514C0
:100208000000000005108312031351180E2905146D
:1002180005101229051400000000051083120313AD
:10022800D31B1929051405101D2905140000000009
:10023800051083120313531B2429051405102829BC
:10024800051400000000051083120313D31A2F2988
:100258000514051033290514000000000510831249
:100268000313531A3A29051405103E2905140000F2
:100278000000051083120313D3194529051405102E
:1002880049290514000000000510831203135319AF
:100298005029051405105429051400000000051004
:1002A80083120313D3185B29051405105F2905145D
:1002B8000000000005108312031353186629051463
:1002C80005106A290514000000000510013083128A
:1002D8000313D0073C3050020318080049280A12BB
:1002E8008A116A240A128A1183120313D500550849
:1002F800031908000A128A115F240A128A110A12C5
:100308008A1194230A128A1183120313D900590AF5
:10031800031DBC2900300A128A1154230A128A11BB
:100328000A128A113F200A128A1183120313B40198
:100338000A128A1197240A128A110E3083120313A3
:10034800D600D70156085702031808005708013E7F
:1003580084000A128A116D230A128A110A128A115C
:1003680039240A128A11013083120313D707A629E8
:10037800C1305906031DC7290A128A113F2083126A
:100388000313B4010800C8305902031CD529D03022
:1003980059020318D5295908383E0A128A111D2412
:1003A800080040305902031CE12980305902031823
:1003B800E1295908C03EB40008004030590203182A
:1003C8000A2A5908D40003300310D40CFF3E031D39
:1003D800E8295408D8005808F40034080A128A1189
:1003E80053240A128A11013083120313B4075908DF
:1003F800D8000730D8055808F40034080A128A11C2
:100408005324013083120313B407080080305902C3
:10041800031C182A903059020318182A5908803EDC
:100428000A128A11ED23080090305902031C262A6B
:10043800A03059020318262A5908703E0A128A1158
:10044800FD230800A0305902031C0800B0305902EF
:10045800031808005908603E0A128A110D24080082
:10046800831203134E080319080003303302E830DF
:10047800031932020318472A0130B2070318B30AD6
:100488000030B3070800B201B3014D08F40007308B
:10049800F4053A080A128A1153240A128A110A1218
:1004A8008A113F200A128A11831203134D08031D73
:1004B800682A3A080339031D722A0130CC07013033
:1004C800CB070130CA07722A3A080339031D722A7A
:1004D8000130CC020130CB020130CA024C080A12AA
:1004E8008A11ED230A128A11831203134B080A1288
:1004F8008A11FD230A128A11831203134A080A1269
:100508008A110D240A128A11013083120313BA07C3
:100518003C303A06031D0800BA010130BB070E3013
:100528003B060319BB013B083C3E840083130008CB
:10053800CD004D08031DA42ACC01CB01CA01080037
:10054800FF30CC00FF30CB00FF30CA000800831218
:100558000313141BB12A941FB42A1413941308000C
:1005680083160313941AD22A8312031313088316CB
:1005780003131419C42A83120313B80114160800AC
:10058800013083120313B800141A08000A128A11E2
:10059800752483120313930014160800831203139F
:1005A8003808031DDC2A13080A128A114624080099
:1005B8001308141A08000A128A11A72383120313B6
:1005C8009300141608000A128A11DD230A128A11F0
:1005D8000A128A1112230A128A110A128A112C2469
:1005E8000A128A11831203138C118C100B178B17A4
:1005F8000A128A119C240A128A110A128A11912459
:100608000A128A1164000A128A1173210A128A11C5
:100618000A128A1134220A128A11062B0A128A1126
:1006280097248316031307148716003083120313C5
:10063800871A0130F5000310F50D00300718013056
:10064800F5073030F5077508F400740783160313AF
:100658009300941391130630831203139400941695
:10066800831603138C150800831203138C1C432B69
:100678008C100A128A1180240A128A114B2B8C1DA5
:100688004B2B8C110A128A11AB220A128A11730899
:100698008A0072088400710E8300FE0E7E0E090027
:1006A800F400F5017508A03E840083138001013031
:1006B800F5073C307502031C562B74080319080013
:1006C8000F3083120313B7000F30B6000F30B50098
:1006D800080003308A000408840A820700344C3476
:1006E8006534643453347434723469347034203467
:1006F800763431342E34303400340134003402344A
:10070800003403340034043400340534003406342F
:10071800003407340034FF34FF34FF34013401342B
:1007280077087606031D9A2BFF3008007608903E5E
:10073800840083170008F4007608013EF6003F3075
:10074800F6057408080079087806031DAD2BFF30FC
:1007580008007808203E840083130008F000780819
:10076800013EF8000F30F805700808008B1264008D
:10077800831203138101831603138115F830F400E3
:10078800F83081050730F40474088100640008001B
:100798007E088A007F088200CC230A128A11800012
:1007A800840A04087D0603190034FF0A0319FE0AA7
:1007B800D02B831603178801890183160313870139
:1007C800871507168312031387010A128A11BA23A1
:1007D8000800F5007508F40003300310F40DFF3E1F
:1007E800031DF12B0310740D0F3E83120313B70082
:1007F8000800F5007508F40003300310F40DFF3EFF
:10080800031D012C0310740D0F3E83120313B60051
:100818000800F5007508F40003300310F40DFF3EDE
:10082800031D112C0310740D0F3E83120313B50022
:100838000800F400F5017508A03E840074088313CD
:1008480080000130F5073C307502031808001F2CA2
:1008580083160313051001300A128A1154230A1251
:100868008A110A128A113F200800F4007908203EF4
:1008780084007408831380007908013EF9000F3062
:10088800F9050800F0007708903E84007008831787
:1008980080007708013EF7003F30F7050800F500B3
:1008A8003C307502031808007508A03E84007408DF
:1008B800831380000800831203134E0803190800ED
:1008C800CE0101300A128A115423080076087702F3
:1008D800031C712C76087702080076087702403EE0
:1008E800080078087902031C7C2C78087902080033
:1008F80078087902103E0800013083120313B0070C
:100908000318B10A0030B107080064008001840AA6
:1009180004060319003404068A2C831203130715EE
:100928000130B9000800F901F801F701F6010800E3
:04093800640008004F
:04400E00EA27FF3F5F
:00000001FF
