:060000000A128A110E280D
:10000800FE00030EF1000408F2000A08F3000A12C9
:100018008A11CF2B0A128A111128F601F701F8016B
:10002800F9018313203084004C300A128A11C92444
:100038000A128A11A0308400E0300A128A11C924F9
:100048000A128A11831790308400D0300A128A115C
:10005800C9240A128A111030840050300A128A11F9
:10006800C9240A128A1183010A128A114C2B83129D
:100078000313DB01DE0103145E0D850000000000A0
:100088000000000000000000000000000000000068
:10009800831203130608DC005C09DC005E08383EA6
:1000A800840083130008D4005C085406D80058085C
:1000B800D9005C08D9055808031D632864286728F7
:1000C8000830DB0700295E08383E84005C088000A1
:1000D8005908031D70287128722864285E08303E6C
:1000E80084000008DA00DD010130D0005D0A7E28B6
:1000F8000310D00DFF3E031D7C2850085905031935
:1001080086288728F0280130D0005D0A8D28031042
:10011800D00DFF3E031D8B2850085A05031D952856
:100128009628F0285B08903E840083170008D000CA
:10013800D1015008D100D0015B08103E84000008AE
:100148005007D2000030031801305107D30053087C
:10015800F5005208F4000A128A117F230A128A1144
:10016800750883120313D7007408D60000305702AD
:10017800FF3003195602031CC228C328C6287F3043
:10018800D500CF285708D1005608D0000310D10C4D
:10019800D00C5008D5005B08C0380A128A11812497
:1001A8000A128A118312031355080A128A1181242C
:1001B8000A128A110A128A11EF230A128A110130CF
:1001C80083120313D0005D0AEB280310D00DFF3E05
:1001D800031DE9285008DA040130DB070130DD0788
:1001E80008305D02031CF928FA2878285E08303E9A
:1001F80084005A08831380000130DE0708305E024D
:10020800031C072908293F28080083120313D60175
:10021800D9015908CC004C078500000000000000F7
:100228000000000000000000000000000000831231
:1002380003130609D4005908403E840083130008BC
:10024800D00054085006D5005508031D2C292D2927
:1002580030290830D607C7295508D1005408D105D8
:100268005508D2005008D2055908403E8400540869
:10027800800051080319412942297329D701013007
:10028800CC00570A49290310CC0DFF3E031D47290E
:100298004C0851050319512952296B294908CF00E7
:1002A8004808CE0090305707CC0056084C07CD00C0
:1002B8004D0884004F088317800010305707CC0082
:1002C80056084C07CD004D0884004E0880000130C8
:1002D800D70708305702031C72297329432952088B
:1002E8000319772978292D295908303E840083136A
:1002F8000008D300D8010130CC00580A8529031022
:10030800CC0DFF3E031D83294C08520503198D2986
:100318008E29B8290130CC00580A94290310CC0D35
:10032800FF3E031D92294C08530503199C299D295A
:10033800B8295808560780380A128A1181240A12E7
:100348008A110A128A11EF230A128A1101308312C4
:100358000313CC00580AB2290310CC0DFF3E031D2D
:10036800B0294C08FF3AD3050130D80708305802A5
:10037800031CBF29C0297F295908303E840053082F
:10038800831380002D290130D90708305902031C36
:10039800CE29CF290D290800023083120313CE007D
:1003A8004530CD00A930CC00CC0BD829CD0BD829AD
:1003B800CE0BD82964000A128A11D1240A128A1194
:1003C8001A3083120313CE005E30CD006D30CC009E
:1003D800CC0BEC29CD0BEC29CE0BEC29F3290A1216
:1003E8008A11D7240A128A110D3083120313CE0002
:1003F800AF30CD00B530CC00CC0B002ACD0B002A95
:10040800CE0B002A072A64000A128A11D1240A1284
:100418008A11033083120313CE008A30CD00553081
:10042800CC00CC0B152ACD0B152ACE0B152A0A1297
:100438008A11D7240A128A11083083120313CE00B6
:100448009D30CD000530CC00CC0B282ACD0B282AB6
:10045800CE0B282A64000A128A11D1240A128A11A2
:10046800033083120313CE008A30CD005530CC0000
:10047800CC0B3C2ACD0B3C2ACE0B3C2A0A128A1103
:10048800D7240A128A11083083120313CE009D3034
:10049800CD000530CC00CC0B4F2ACD0B4F2ACE0B0C
:1004A8004F2A64000A128A11D1240A128A110330D1
:1004B80083120313CE008A30CD005530CC00CC0B0C
:1004C800632ACD0B632ACE0B632A0A128A11D7241A
:1004D8000A128A11083083120313CE009D30CD0012
:1004E8000530CC00CC0B762ACD0B762ACE0B762A9B
:1004F8000A128A11D1240A128A11080083120313DE
:10050800141B872A882A8C2A941F8B2A8C2A8F2AC4
:1005180014139413D32A83160313941A942A952A2E
:10052800B62A8312031313088316031314199D2A7A
:100538009E2AA32A83120313CA011416D32A013050
:1005480083120313CA00141EAA2AAB2AAC2AD32A80
:100558000A128A11A8240A128A118312031393001B
:100568001416D32A831203134A08031DBC2ABD2A72
:10057800C42A13080A128A119B240A128A11D32A40
:100588001308141EC82AC92ACA2AD32A0A128A1189
:1005980034240A128A1183120313930014160800D4
:1005A8000A128A118E240A128A1183120313CC00AC
:1005B8004C08031DE02AE12AE22A112B0A128A11AB
:1005C8001F240A128A1183120313CD004D0A031D3A
:1005D800EE2AEF2A112B0A128A11DC240A128A1138
:1005E8000E3083120313CE00CF010B2B4F08013EB0
:1005F80084000A128A1149240A128A110A128A11DD
:1006080081240A128A11013083120313CF074E087E
:100618004F02031C102B112BFA2A08008316031310
:100628000510851005118511051283120313850124
:10063800FF308316031386008113FF309500F50100
:100648007508403E8400831380017508383E840095
:1006580080017508303E840080010130F5070830BC
:100668007502031C382B392B242BF4017408903E97
:100678008400831780017408103E840080010130D3
:10068800F40740307402031C4A2B4B2B3A2B08000A
:100698000A128A115D240A128A110A128A11A723E2
:1006A8000A128A110A128A1109240A128A110A12D4
:1006B8008A1112230A128A11831203138C118C10C7
:1006C8000B178B170A128A11D0210A128A110A12E3
:1006D8008A11D1240A128A1164000A128A11D422BA
:1006E8000A128A110A128A11B5240A128A11702B69
:1006F8000A128A110E28831203134908CF004808EA
:10070800CE0075084F02031D8B2B74084E02031C84
:100718008E2B8F2B982B74084E02F4007508031C3F
:10072800750A4F02F500A62B7508CD007408CC0099
:10073800CC09CD094E084C07F4004F0803184F0A9E
:100748004D07F50008000A128A11DC240A128A11E2
:100758008316031307148716003083120313871AAE
:100768000130F5000310F50D003007180130F507CA
:100778003030F5077508F4007407831603139300E7
:10078800941391130630831203139400941683165E
:1007980003138C150800831203138C1CD42BD52B40
:1007A800DC2B8C100A128A11C0240A128A11E62B3B
:1007B8008C1DDF2BE02BE62B8C110A128A1182226A
:1007C8000A128A1173088A0072088400710E830065
:1007D800FE0E7E0E0900831203134B080319F52B36
:1007E800F62BFF2B0A128A11D7240A128A118312B8
:1007F8000313CB01082C0A128A11D1240A128A1178
:10080800013083120313CB00080083120313C801BD
:10081800C901831603138C148430831203139205C1
:100828000330920492159B308316031392008312AF
:1008380003131215080077087606031D242C252CAF
:10084800272CFF30332C7608203E840083130008C1
:10085800F4007608013EF6000F30F605740808002B
:1008680079087806031D392C3A2C3C2CFF30482C8B
:100878007808A03E840083130008F0007808013E41
:10088800F8003F30F8057008080004308A000408B2
:10089800840A820700344B346534793462346F3407
:1008A8006134723464342034763431342E34303444
:1008B80000348316031788018901831603138701FF
:1008C800871507168312031387010A128A116F24EA
:1008D8000A128A1108008B12640083120313810123
:1008E800831603138115F830F400F83081050730BA
:1008F800F4047408810064000800F4007908A03E3C
:1009080084007408831380007908013EF9003F30A1
:10091800F905080076087702031C932C942C972C71
:10092800760877029A2C76087702103E0800F000C5
:100938007708203E84007008831380007708013E02
:10094800F7000F30F705080078087902031CAD2C72
:10095800AE2CB12C78087902B42C78087902403E84
:1009680008000A128A1109210A128A110A128A1128
:100978003B200A128A110800013083120313C807AA
:100988000318C90A0030C907080064008001840AF6
:100998000406031900340406CA2C8312031307152E
:1009A8000130CB000800831203130711CB010800A4
:0A09B800F901F801F701F60108004B
:04400E00EA27FF3F5F
:00000001FF
