:060000000A128A110E280D
:10000800FE00030EF1000408F2000A08F3000A12C9
:100018008A11B22B0A128A111128F601F701F80188
:10002800F9018313203084005C300A128A11982465
:100038000A128A11A0308400C0300A128A1198244A
:100048000A128A11831790308400D0300A128A115C
:1000580098240A128A111030840050300A128A112A
:1000680098240A128A1183010A128A110E2B83120C
:100078000313EB01EE0103146E0D85000000000070
:100088000000000000000000000000000000000068
:10009800831203130608EC006C09EC006E08483E56
:1000A800840083130008E4006C086406E80068080C
:1000B800E9006C08E9056808031D632864286728B7
:1000C8000830EB0700296E08483E84006C08800061
:1000D8006908031D70287128722864286E08403E3C
:1000E80084000008EA00ED010130E0006D0A7E2876
:1000F8000310E00DFF3E031D7C2860086905031905
:1001080086288728F0280130E0006D0A8D28031022
:10011800E00DFF3E031D8B2860086A05031D952826
:100128009628F0286B08903E840083170008E000AA
:10013800E1016008E100E0016B08103E840000085E
:100148006007E2000030031801306107E30063082C
:10015800F5006208F4000A128A1141230A128A1172
:10016800750883120313E7007408E600003067027D
:10017800FF3003196602031CC228C328C6287F3033
:10018800E500CF286708E1006608E0000310E10CED
:10019800E00C6008E5006B08C0380A128A11502488
:1001A8000A128A118312031365080A128A1150244D
:1001B8000A128A110A128A11D2230A128A110130EC
:1001C80083120313E0006D0AEB280310E00DFF3ED5
:1001D800031DE9286008EA040130EB070130ED0748
:1001E80008306D02031CF928FA2878286E08403E6A
:1001F80084006A08831380000130EE0708306E021D
:10020800031C072908293F28080083120313E60165
:10021800E9016908DC005C078500000000000000B7
:100228000000000000000000000000000000831231
:1002380003130609E4006908503E8400831300088C
:10024800E00064086006E5006508031D2C292D29D7
:1002580030290830E607C7296508E1006408E10588
:100268006508E2006008E2056908503E84006408F9
:10027800800061080319412942297329E7010130E7
:10028800DC00670A49290310DC0DFF3E031D4729DE
:100298005C0861050319512952296B295908DF00A7
:1002A8005808DE0090306707DC0066085C07DD0050
:1002B8005D0884005F088317800010306707DC0042
:1002C80066085C07DD005D0884005E088000013078
:1002D800E70708306702031C72297329432962085B
:1002E8000319772978292D296908403E840083134A
:1002F8000008E300E8010130DC00680A85290310E2
:10030800DC0DFF3E031D83295C08620503198D2956
:100318008E29B8290130DC00680A94290310DC0D05
:10032800FF3E031D92295C08630503199C299D293A
:10033800B8296808660780380A128A1150240A12F8
:100348008A110A128A11D2230A128A1101308312E1
:100358000313DC00680AB2290310DC0DFF3E031DFD
:10036800B0295C08FF3AE3050130E8070830680265
:10037800031CBF29C0297F296908403E84006308FF
:10038800831380002D290130E90708306902031C16
:10039800CE29CF290D290800023083120313DE006D
:1003A8004530DD00A930DC00DC0BD829DD0BD8296D
:1003B800DE0BD82964000A128A11A0240A128A11B5
:1003C8001A3083120313DE005E30DD006D30DC006E
:1003D800DC0BEC29DD0BEC29DE0BEC29F3290A12E6
:1003E8008A11A6240A128A110D3083120313DE0023
:1003F800AF30DD00B530DC00DC0B002ADD0B002A55
:10040800DE0B002A072A64000A128A11A0240A12A5
:100418008A11033083120313DE008A30DD00553061
:10042800DC00DC0B152ADD0B152ADE0B152A0A1257
:100438008A11A6240A128A11083083120313DE00D7
:100448009D30DD000530DC00DC0B282ADD0B282A76
:10045800DE0B282A64000A128A11A0240A128A11C3
:10046800033083120313DE008A30DD005530DC00D0
:10047800DC0B3C2ADD0B3C2ADE0B3C2A0A128A11D3
:10048800A6240A128A11083083120313DE009D3055
:10049800DD000530DC00DC0B4F2ADD0B4F2ADE0BBC
:1004A8004F2A64000A128A11A0240A128A11033002
:1004B80083120313DE008A30DD005530DC00DC0BCC
:1004C800632ADD0B632ADE0B632A0A128A11A6242B
:1004D8000A128A11083083120313DE009D30DD00F2
:1004E8000530DC00DC0B762ADD0B762ADE0B762A5B
:1004F8000A128A11A0240A128A110800831203130F
:10050800141B872A882A8C2A941F8B2A8C2A8F2AC4
:1005180014139413D32A83160313941A942A952A2E
:10052800B62A8312031313088316031314199D2A7A
:100538009E2AA32A83120313DA011416D32A013040
:1005480083120313DA00141EAA2AAB2AAC2AD32A70
:100558000A128A1177240A128A118312031393004C
:100568001416D32A831203135A08031DBC2ABD2A62
:10057800C42A13080A128A116A240A128A11D32A71
:100588001308141EC82AC92ACA2AD32A0A128A1189
:1005980017240A128A1183120313930014160800F1
:1005A8008316031305108510051185110512831292
:1005B80003138501FF308316031386008113FF3070
:1005C8009500F5017508503E840083138001750875
:1005D800483E840080017508403E84008001013057
:1005E800F50708307502031CFA2AFB2AE62AF401EB
:1005F8007408903E8400831780017408103E8400BC
:1006080080010130F40740307402031C0C2B0D2BC1
:10061800FC2A08000A128A112C240A128A110A12CA
:100628008A1169230A128A110A128A11EC230A1202
:100638008A110A128A11D4220A128A118312031308
:100648008C118C100B178B170A128A11D0210A12E1
:100658008A110A128A11A0240A128A1164000A1245
:100668008A1191230A128A110A128A1184240A1201
:100678008A11322B0A128A110E2883120313590881
:10068800DF005808DE0075085F02031D4D2B740853
:100698005E02031C502B512B5A2B74085E02F40087
:1006A8007508031C750A5F02F500682B7508DD00E4
:1006B8007408DC00DC09DD095E085C07F4005F08EB
:1006C80003185F0A5D07F50008000A128A11AB24B7
:1006D8000A128A118316031307148716003083122F
:1006E8000313871A0130F5000310F50D00300718C1
:1006F8000130F5073030F5077508F40074078316E4
:100708000313930094139113063083120313940078
:100718009416831603138C1508000A128A115D2497
:100728000A128A1183120313DC005C08031D9D2B37
:100738009E2B9F2BB12B0A128A1102240A128A11AE
:1007480083120313DD005D0A031DAB2BAC2BB12B09
:100758000A128A11AB240A128A11080083120313A1
:100768008C1CB72BB82BBF2B8C100A128A118F2424
:100778000A128A11C92B8C1DC22BC32BC92B8C11B1
:100788000A128A1182220A128A1173088A007208D0
:100798008400710E8300FE0E7E0E0900831203137F
:1007A8005B080319D82BD92BE22B0A128A11A6242D
:1007B8000A128A1183120313DB01EB2B0A128A1126
:1007C800A0240A128A11013083120313DB000800E7
:1007D80083120313D801D901831603138C148430B0
:1007E8008312031392050330920492159B308316EB
:1007F8000313920083120313121508007708760674
:10080800031D072C082C0A2CFF30162C7608A03E56
:10081800840083130008F4007608013EF6001F30B8
:10082800F6057408080079087806031D1C2C1D2C91
:100838001F2CFF302B2C7808203E840083130008DF
:10084800F0007808013EF8001F30F805700808002D
:1008580083160317880189018316031387018715F7
:1008680007168312031387010A128A113E240A12FB
:100878008A1108008B126400831203138101831606
:1008880003138115F830F400F83081050730F404BB
:100898007408810064000800F4007908203E840090
:1008A8007408831380007908013EF9001F30F905A8
:1008B800080076087702031C622C632C662C7608E5
:1008C8007702692C76087702203E0800F000770846
:1008D800A03E84007008831380007708013EF7006B
:1008E8001F30F705080078087902031C7C2C7D2C42
:1008F800802C78087902832C78087902203E080039
:100908000A128A1109210A128A110A128A113B2035
:100918000A128A110800013083120313D80703183A
:10092800D90A0030D907080064008001840A040647
:10093800031900340406992C831203130715013098
:10094800DB000800831203130711DB010800F9011B
:08095800F801F701F6010800A7
:04400E00EA27FF3F5F
:00000001FF
